:040000008A15002835
:10000800FF00030E8301E2000A08E3008A0170087A
:10001800A0008C1C65284208003A031D4A282A08BB
:10002800031947282A08013A031D1C282908AB0090
:10003800270AF0007008A70027082B06031D2628AA
:100048000713871227082806031D4628A7012A0830
:10005800013A031D39288712000000000000000043
:10006800000007170230AA0046282A08023A031D92
:100078004628071300000000000000000000871653
:100088000130AA004928071387126328340AF000B0
:100098007008B40034082E06031D62283D08003A93
:1000A800031D602800302306031D5C28013022064A
:1000B800031D602886156128861163288611910121
:1000C8008C108B1C7628B4018B1091018C104A0A75
:1000D800F0007008CA004A08043A031D7628CA01CD
:1000E8002F08AE002008F00063088A00620E830023
:0600F800FF0E7F0E09005F
:0C00FE00000000000000000000000800EE
:10010A00243083120313FC00B530FD00FD0B8B284D
:0A011A00FC0B8B2800000000080019
:0E012400533083120313FD00FD0B96280800D4
:10013200243083120313FD00FD0B9D2800000800EC
:1001420083120313EC1BA7288711A82887156C1BA1
:10015200AC280711AD280715EC1AB1288710B22870
:1001620087146C1AB6280710B72807145018BB2832
:100172008617BC28861307167F200712EC19C3289E
:100182008711C42887156C19C8280711C9280715B3
:10019200EC18CD288710CE2887146C18D2280710A7
:1001A200D32807145018D7288617D828861307167D
:1001B2007F200712501CDF288520E02892200800AB
:1001C2008312031350106908EC00A1205014080098
:1001D200583083120313CD000130CE002130CF00FE
:0C01E20000309F01C0309F041F14080073
:1001EE000929803083120313E9001C29C030E9006D
:1001FE001C299430E9001C29D430E9001C298030D8
:10020E00E9001C29831203136908013A0319F8281F
:10021E006908023A0319FD286908033A03190029EF
:10022E006908043A0319032906296A03F0006908CC
:10023E00F0077008E90050147008EC00A12050106F
:0A024E006B08EC00A120501408001A
:10025800710DF80DF90D7408F8027508031C750F77
:10026800F902F00DF10D0F30FC00710DF80DF90DCC
:100278007408701C4529F8027508031C750FF902EB
:100288004A29F80775080318750FF907F00DF10DDD
:10029800FC0B3929701856297408F80775080318D3
:0802A800750FF90700000800C2
:1002B000831203132108F000F00D7010F00D701080
:1002C000F00D701070089F0499201F151F1D6A29DA
:0C02D000000066291E08F000F101080083
:1002DC0083120313FB01FA01F9018030F800F10CD1
:1002EC00F00C031C82297408F90775080318750FA4
:1002FC00FA070318FB0A0310F01F8A297408FA077F
:10030C0075080318750FFB07FB0CFA0CF90CF80CAD
:10031C00031C75297B08F3007A08F2007908F100B8
:06032C007808F000080053
:1003320083120313F801F9011030FC00710DF80D5E
:10034200F90D7408F8027508031C750FF9020318F9
:10035200B1297408F80775080318750FF907031017
:0A036200F00DF10DFC0B9F290800BF
:10036C000530831203139200F93083169200831226
:10037C008C1083168C141130831290000130AA005B
:10038C001E30A9002908AB00E401AC01E101861183
:0C039C000B121B30B9000030BA00080042
:0E03A8008312031366088A00650882000800AD
:1003B60083120313B801670838020318EA292030AC
:1003C600E900E120380AF0007008B800DE290800CC
:1003D600831603139F01C53083121F05F0001830E2
:1003E60070049F00BB01BC01A401A5018F018E0111
:1003F6000C100C18382AB601B701B8014030380283
:100406000318132A0330A10058217008B607710893
:100416000318013EB707380AF0007008B800012A31
:100426002408013EF00000300318013E2507F100C4
:100436007008A4007108A5000630F2003608F00026
:100446003708F100720803192D2AF10CF00CF1138C
:10045600FF3E262A7008B6007108B7003608BB07AB
:1004660037080318013EBC07FC292408F4002508B8
:10047600F5003B08F0003C08F10099217008BB002C
:100486007108BC004008F4004108F500A830F000EF
:100496000C30F10099217008B9007108BA003908CA
:1004A600F0003A08F1000330F4000030F5006E2148
:1004B6003C087102031D612A3B0870020318662A74
:1004C6000130E4007A2A3C083A02031D6C2A3B08F4
:1004D60039020318792A2C0AF0007008AC0007309C
:1004E6002C02031C782A0130E4007A2AAC0107307A
:0604F60083169F000800C0
:1004FC002F30831603138500213086008701831269
:0E050C00850186018701073083169F000800D5
:10051A00831603139F01C53083121F05F0000830AC
:10052A0070049F00D201D301A401A5010030250265
:10053A00031DA12A043024020318B92A0130A1009C
:10054A0058217008D20771080318013ED3072408FE
:10055A00013EF00000300318013E2507F100700843
:10056A00A4007108A5009B2A5208F0005308F10064
:10057A00F10CF00CF113F10CF00CF1137008D2002D
:10058A007108D30000305302031DCD2A30305202C5
:10059A000318D82A2F3029020318D72A290AF0006B
:1005AA007008A900E82A5308003C031DDE2A5208F5
:1005BA00313C0318E82A29081E3C0318E82A2903B3
:0E05CA00F0007008A900073083169F0008009B
:1005D800403083120313EC00A120A401A5012508D3
:1005E800003C031DF92A2408073C031C752B512BDA
:1005F8002408433EF00006300318013E2507F100A9
:100608007008E5007108E600D4218A110A12D900A1
:10061800652B24084B3EF00006300318013E2507E1
:10062800F1007008E5007108E600D4218A110A1269
:10063800D900652B24083B3EF00006300318013E24
:100648002507F1007008E5007108E600D4218A1139
:100658000A12D900652B24082B3EF0000630031837
:10066800013E2507F1007008E5007108E600D42175
:100678008A110A12D900652B2408333EF00006308F
:100688000318013E2507F1007008E5007108E6002F
:10069800D4218A110A12D900652B5808013A031986
:1006A800FC2A5808023A03190D2B5808033A031973
:1006B8001E2B5808043A03192F2B5808053A03191A
:1006C800402B5908E900E1202408013EF0000030E1
:1006D8000318013E2507F1007008A4007108A50061
:1006E800F32A0230EC00A1206708E9006808EA0054
:0606F800EB01F7200800F1
:1006FE00831203133E08003A0319872BC2018B2B7A
:10070E000130C2000330BF002608023A013003193F
:10071E000030F1006408003A0130031D0030F00093
:10072E007108F0050319A22B861A9F2BBF01A12B6E
:10073E000330BF00AF2B2608023A031DA92B013050
:10074E00BF00AF2B6408013A031DAF2B0230BF0070
:10075E00861EB32B0330BF004208013A031D0C2C3A
:10076E006108003A031D0B2CA201A3018C10831605
:10077E008C108312910107138712AA01AD01861105
:10078E000B120330BF008230FC00DD30FD00FD0B8C
:10079E00CE2BFC0BCE2B0000000006128230FC008C
:1007AE00DD30FD00FD0BD92BFC0BD92B000000001A
:1007BE00831601170B168B1001308312E1000530E2
:1007CE009200F9308316920083128C1083168C14CB
:1007DE0028308312AE002E08B200B301B401861188
:1007EE00BD01BB01BC01B5018F018E0131309000FE
:1007FE000C106430AF00A201A301B001B101D7010A
:10080E001B30B9000030BA003F2C4208003A031DDD
:10081E003F2CB4018611E1013F08003A031D202C44
:10082E002D08003A031D1F2CB6210130AD0006160F
:10083E003F2C8C1083168C10831291010713871294
:10084E00AA018230FC00DD30FD00FD0B2C2CFC0BD0
:10085E002C2C000000000612AD0186110B123F0871
:10086E00033A031D3F2C0330A600E401BB01BC017B
:02087E00080070
:10088000831603139F018312C001C101C5309F0568
:10089000B8010830380203185A2CA10158217008F9
:1008A000C00771080318013EC107380AF00070083C
:1008B000B800492C4008F0004108F100F10CF00CA0
:1008C000F113F10CF00CF113F10CF00CF1137008B2
:1008D000C0007108C1002608023A01300319003037
:1008E000F1004208013A0130031D0030F0007108A8
:1008F000F0040319B42C00304102031D812C5F3039
:1009000040020318872C0230A600BD01B42C003031
:100910004102031D8D2C693040020318932C0130D5
:10092000A600BD01B42C4108003C031D992C4008D1
:100930008E3C0318A02C0130BD000430A600B42C5E
:100940004108003C031DA62C40087D3C0318B12C37
:100950003D080319AE2C0430A600B02C0530A600CB
:10096000B42C0330A600BD01073083169F00080099
:1009700083160313071286130710871007118711B8
:10098000831207128613871107118710071085201D
:10099000852085208714071407167F2007128520DD
:1009A00007167F200712852007167F200712852053
:1009B000071007167F200712852007167F200712D1
:1009C0008710871507167F200712852087110714C7
:1009D00007167F200712071007167F2007128520B1
:1009E00007167F200712071407167F20071285209D
:1009F000071007167F20071287150715871407149D
:0C0A000007167F20071285205014080004
:100A0C00D4218A110A128000840AE50A0319E60A25
:080A1C00F003031D062D080084
:100A2400643083120313F4000030F5005508F0001D
:100A34005608F100992130307007D4000A30F400D0
:100A44000030F5005508F0005608F10099210A30ED
:100A5400F4000030F50099217808F0007908F100DD
:100A640030307007DE000A30F4000030F50055081D
:100A7400F0005608F10099217808F0007908F10097
:080A840030307007DF000800AC
:100A8C00831603139F01C53083121F05F00010302D
:100A9C0070049F00DB01DC01B80108303802031838
:100AAC00652D0230A10058217008DB07710803186E
:100ABC00013EDC07380AF0007008B800532D5B08C3
:100ACC00F0005C08F100F10CF00CF113F10CF00CDF
:100ADC00F113F10CF00CF1137008DB007108DC0061
:100AEC003E08013A031D7D2D7630C6007F2D7230F5
:100AFC00C6003E08023A031D872DD330CB00CC0133
:100B0C008A2DD730CB00CC0100305C02031D902D18
:100B1C0046085B020318952D0130BE00A12D5C0820
:100B2C004C02031D9B2D5B084B020318A02D0230B9
:0E0B3C00BE00A12DBE01073083169F000800E9
:100B4A00831203137008F100F0010830FC007108E9
:100B5A00F40C0318B42DFC0BAD2DF1010034031075
:100B6A00B92DF40C0318F107F10CF00CFC0BB62D9F
:020B7A00080071
:100B7C00831203137408003A031DCD2D7508003A37
:100B8C00031DCD2DFF30F0007F30F10008008312E3
:100B9C000313FD01F901F801710870040319003405
:100BAC0071087506FA00FA1BFD09FB01F51FE32D10
:100BBC00F409F509F40A0319F50AF11FEA2DF009F5
:100BCC00F109F00A0319F10A71087504FA00FA1B0D
:100BDC00FF2D2C217B18122EFD1F0034F009F1097A
:100BEC00F00A0319F10AF809F909F80A0319F90AC4
:100BFC000034F51F0E2EF11B0A2E7108F900700837
:100C0C00F800F101F001F22DF101F001F00A0034CD
:100C1C00F109F009FB0AEF2DF80A0319F90A740817
:100C2C007802031DF22D75087902031DF22DF901CE
:100C3C00F801F00A0319F10AF11FF22D0000FF343C
:020C4C0008009E
:080C4E00E9208B170B170800C9
:1010000083120313A201A301A401A5010330A600CA
:10101000A7013230A8001E30A900AA011E30AB0083
:10102000AC018A1127268A158A117E228A15013081
:101030008312AA00AD01C2010130BE00E101BD0171
:10104000B501E001DA010130D8008A11B8248A150F
:101050000130EC008A11A1208A150C30EC008A11B5
:10106000A1208A15313090008A1146258A158A11EF
:1010700040248A158A117F238A154208003A031DED
:101080005C28A201A3013F08003A031D54288A11DD
:10109000EB218A158A118D228A1583120C105A0AA7
:1010A000F0007008DA005B280C1C5B285A0AF0007C
:1010B0007008DA000C10FF286108013A031DF828B7
:1010C0003508003A031DDA280C1CD9285A0AF0000A
:1010D0007008DA00310AF0007008B1003108023AF5
:1010E000031DD828300AF0007008B0000530F20067
:1010F0005B08F0005C08F100720803198428F00D09
:10110000F10D7010FF3E7D28B830F400F5018A1112
:1011100099218A157008B2007108B3003008643C48
:10112000031899280130B5000130A2000030A30057
:10113000D6283008323C0318D4283208B6003308C9
:10114000B70032303002F000F101031CF1037008E7
:10115000103CF0007108031C013EF101F10270081F
:10116000B60771080318013EB70733083702031D9D
:10117000BB2832083602031CC1283608B2003708E3
:10118000B30000303702031DC7282E303602031C7F
:10119000CD282E30B2000030B3003208AF0001304D
:1011A000A2000030A300D628A201A301B101D828D3
:1011B0000C10F7280530F2005B08F0005C08F10025
:1011C00072080319E828F00DF10D7010FF3EE128B8
:1011D000B830F400F5018A1199218A157008AF0022
:1011E0000C1CF7285A0AF0007008DA000C10FF28CF
:1011F0000C1CFF285A0AF0007008DA000C101008C6
:10120000113A031D06295A30DD000F291008313A22
:10121000031D0D291E30DD000F293C30DD005A086A
:101220005D06031D2329600AF0007008E00001300C
:10123000EC008A11A1208A15D10107306002031C3D
:101240002229E001DA012D2E0130E9000530EA0003
:101250004D30EB008A11F7208A152030E9008A1101
:10126000E1208A154D30E9008A11E1208A156930A4
:10127000E9008A11E1208A156330E9008A11E12032
:101280008A157230E9008A11E1208A156F30E90071
:101290008A11E1208A150230E9000430EA00533057
:1012A000EB008A11F7208A156F30E9008A11E120DE
:1012B0008A156C30E9008A11E1208A157530E90041
:1012C0008A11E1208A157430E9008A11E1208A151B
:1012D0006930E9008A11E1208A156F30E9008A112E
:1012E000E1208A156E30E9008A11E1208A157330F9
:1012F000E9008A11E1208A15492E0130E900013008
:10130000EA004D30EB008A11F7208A156130E900C0
:101310008A11E1208A156930E9008A11E1208A15D5
:101320006E30E9008A11E1208A157330E9008A11D4
:10133000E1208A152030E9008A11E1208A15563013
:10134000E9008A11E1208A153A30E9008A11E1208A
:101350008A155B08F0005C08F100DC30F400F50150
:101360008A116E218A15B830F400F5018A1199218D
:101370008A157008D5007108D6008A1112258A15C1
:101380000130E9000C30EA007E30EB008A11F720D2
:101390008A155408E9008A11E1208A155E08E900DF
:1013A0008A11E1208A155F08E9008A11E1208A1577
:1013B0005630E9008A11E1208A150230E900033035
:1013C000EA004D30EB008A11F7208A156130E90000
:1013D0008A11E1208A156930E9008A11E1208A1515
:1013E0006E30E9008A11E1208A157330E9008A1114
:1013F000E1208A152030E9008A11E1208A153E0893
:10140000003A031D132A4F30E9008A11E1208A15A2
:101410006B30E9008A11E1208A150630E7008A1155
:10142000DB218A15582A3E08013A031D3B2A4C301D
:10143000E9008A11E1208A156F30E9008A11E12064
:101440008A157730E9008A11E1208A152F30E900EA
:101450008A11E1208A154F30E9008A11E1208A15AE
:101460006630E9008A11E1208A156630E9008A11A8
:10147000E1208A15582A3E08023A031D582A4830AE
:10148000E9008A11E1208A156930E9008A11E1201A
:101490008A156730E9008A11E1208A156830E90071
:1014A0008A11E1208A150430E7008A11DB218A15B0
:1014B000492E0130E9000330EA004930EB008A117F
:1014C000F7208A156E30E9008A11E1208A157630FE
:1014D000E9008A11E1208A156530E9008A11E120CE
:1014E0008A157230E9008A11E1208A157430E9000A
:1014F0008A11E1208A156530E9008A11E1208A15F8
:101500007230E9008A11E1208A152030E9008A1141
:10151000E1208A153F08003A0130031D0030F10038
:101520004208003A0130031D0030F0007108F00558
:101530000319AA2A4F30E9008A11E1208A156E307A
:10154000E9008A11E1208A150330E7008A11DB21C6
:101550008A15A52B3F08033A0130031D0030F10026
:101560004208013A0130031D0030F0007108F00418
:101570000319172B4F30E9008A11E1208A156630D4
:10158000E9008A11E1208A156630E9008A11E1201C
:101590008A150230E7008A11DB218A150230E90042
:1015A0000430EA005330EB008A11F7208A157730B7
:1015B000E9008A11E1208A156930E9008A11E120E9
:1015C0008A157430E9008A11E1208A156330E90038
:1015D0008A11E1208A156830E9008A11E1208A1514
:1015E0002030E9008A11E1208A15861E072B4F3032
:1015F000E9008A11E1208A156630E9008A11E120AC
:101600008A156630E9008A11E1208A15162B4F30C1
:10161000E9008A11E1208A156E30E9008A11E12083
:101620008A150230E7008A11DB218A15A52B4F307D
:10163000E9008A11E1208A156630E9008A11E1206B
:101640008A156630E9008A11E1208A150230E70028
:101650008A11DB218A153F08013A031D6B2B0230EA
:10166000E9000130EA004230EB008A11F7208A15C8
:101670006130E9008A11E1208A157430E9008A118D
:10168000E1208A157430E9008A11E1208A1565305D
:10169000E9008A11E1208A157230E9008A11E120FF
:1016A0008A157930E9008A11E1208A152030E90095
:1016B0008A11E1208A154C30E9008A11E1208A154F
:1016C0006F30E9008A11E1208A157730E9008A112C
:1016D000E1208A15A52B3F08023A031DA52B0230F5
:1016E000E9000130EA002030EB008A11F7208A156A
:1016F0000430E7008A11DB218A154F30E9008A1196
:10170000E1208A157630E9008A11E1208A156530DA
:10171000E9008A11E1208A157230E9008A11E1207E
:101720008A156C30E9008A11E1208A156F30E900D2
:101730008A11E1208A156130E9008A11E1208A15B9
:101740006430E9008A11E1208A15492E0130E90050
:101750000130EA004230EB008A11F7208A1561302F
:10176000E9008A11E1208A157430E9008A11E1202C
:101770008A157430E9008A11E1208A156530E90084
:101780008A11E1208A157230E9008A11E1208A1558
:101790007930E9008A11E1208A152030E9008A11A8
:1017A000E1208A155630E9008A11E1208A153A3085
:1017B000E9008A11E1208A154008D5004108D600C9
:1017C0008A1112258A150130E9000C30EA0054080C
:1017D000EB008A11F7208A155E08E9008A11E120E2
:1017E0008A152E30E9008A11E1208A155F08E90088
:1017F0008A11E1208A155630E9008A11E1208A1504
:101800000230E9000130EA004230EB008A11F72093
:101810008A156130E9008A11E1208A157430E900E7
:101820008A11E1208A157430E9008A11E1208A15B5
:101830006530E9008A11E1208A157230E9008A11C9
:10184000E1208A157930E9008A11E1208A152030DB
:10185000E9008A11E1208A152608023A031D452C69
:101860004C30E9008A11E1208A156F30E9008A11B5
:10187000E1208A157730E9008A11E1208A150130CC
:10188000E7008A11DB218A15912C2608043A0130E1
:10189000031D0030F1002608053A0130031D003019
:1018A000F0007108F0040319822C3D080319722C12
:1018B0004630E9008A11E1208A157530E9008A1165
:1018C000E1208A156C30E9008A11E1208A156C301C
:1018D000E9008A11E1208A150230E7008A11DB2134
:1018E0008A15812C4F30E9008A11E1208A154B308E
:1018F000E9008A11E1208A150430E7008A11DB2112
:101900008A15912C4F30E9008A11E1208A154B305D
:10191000E9008A11E1208A150430E7008A11DB21F1
:101920008A153F08003A031D9E2C6830C7006C30B2
:10193000C8007130C9007530C300BF2C4208013A9D
:10194000031DB72C3D080319AE2C6830C7006C305E
:10195000C8007130C9007530C300B62C7130C700A3
:101960007830C8007D30C9008730C300BF2C733089
:10197000C7007630C8007930C9007B30C300003022
:101980004102031DC52C470840020318CA2C013030
:10199000D800ED2C00304102031DD02C4808400235
:1019A0000318D52C0230D800ED2C00304102031D65
:1019B000DB2C490840020318E02C0330D800ED2C42
:1019C00000304102031DE62C430840020318EB2CB3
:1019D0000430D800ED2C0530D8000230E7000F307D
:1019E000E8008A11EC228A15492E0130E900023004
:1019F000EA004330EB008A11F7208A156830E900CD
:101A00008A11E1208A156130E9008A11E1208A15E6
:101A10007230E9008A11E1208A156730E9008A11E5
:101A2000E1208A156930E9008A11E1208A156E30BB
:101A3000E9008A11E1208A156730E9008A11E12066
:101A40008A152030E9008A11E1208A154208003AFF
:101A5000031D4D2D4F30E9008A11E1208A156630B3
:101A6000E9008A11E1208A156630E9008A11E12037
:101A70008A150230E7008A11DB218A150230E9005D
:101A80000130EA002030EB008A11F7208A150D3072
:101A9000E7008A11DB218A15962D3D080319732D65
:101AA0004630E9008A11E1208A157530E9008A1173
:101AB000E1208A156C30E9008A11E1208A156C302A
:101AC000E9008A11E1208A150230E9000130EA00BC
:101AD0002030EB008A11F7208A150D30E7008A11BB
:101AE000DB218A15962D5A08F0000A30F4008A117D
:101AF000A5258A155D08F400F5018A11BE258A1511
:101B0000700AF1007108D8007108053C03188A2D8D
:101B10000530D8020130E7000B30E8008A11EC22D2
:101B20008A150630E7008A11DB218A15492E3B0809
:101B3000F0003C08F1006430F4000030F5008A1138
:101B40006E218A153908F4003A08F5008A119921A6
:101B50008A157008C4007108C5004408D5004508FE
:101B6000D6008A1112258A154508003C031DBA2D9E
:101B70004408633C0318C02D6330C4000030C50026
:101B80000130E9000130EA004930EB008A11F7200A
:101B90008A156E30E9008A11E1208A157630E90055
:101BA0008A11E1208A156530E9008A11E1208A1541
:101BB0007230E9008A11E1208A157430E9008A1137
:101BC000E1208A156530E9008A11E1208A1572301A
:101BD000E9008A11E1208A152030E9008A11E1200C
:101BE0008A154C30E9008A11E1208A156F30E9002E
:101BF0008A11E1208A156130E9008A11E1208A15F5
:101C00006430E9008A11E1208A153A30E9008A112E
:101C1000E1208A150230E9000530EA002830EB00A7
:101C20008A11F7208A155E08E9008A11E1208A15D9
:101C30005F08E9008A11E1208A152030E9008A1145
:101C4000E1208A152530E9008A11E1208A15293022
:101C5000E9008A11E1208A15492E6008003A03192B
:101C600024296008013A031924296008023A03195B
:101C70007D296008033A0319592A6008043A0319B8
:101C8000A62B6008053A0319F52C6008063A0319DB
:061C9000972D34284A2EB6
:100C56000E341B3411341F341F341F341F341F3419
:100C66000E341F341F341F341F341F341F341F34F7
:100C76000E341B34113411341F341F341F341F3407
:100C86000E341B3411341134113411341F341F3413
:100C96000E341B341134113411341F341F341F34F5
:02400E000200AE
:00000001FF
