:040000008A15002835
:10000800FF00030E8301DB000A08DC008A01700888
:10001800A0008C1C65286208003A031D4A282208A3
:10002800031947282208013A031D1C282708AB009A
:10003800290AF0007008A90029082B06031D2628A4
:100048000713871229082A06031D4628A901220832
:10005800013A031D39288712000000000000000043
:10006800000007170230A20046282208023A031DA2
:100078004628071300000000000000000000871653
:100088000130A2004928071387126328310AF000BB
:100098007008B10031082E06031D62286308003A73
:1000A800031D602800302406031D5C280130230648
:1000B800031D602886156128861163288611910121
:1000C8008C108B1C7628B1018B1091018C10480A7A
:1000D800F0007008C8004808043A031D7628C801D3
:1000E8005108AE002008F0005C088A005B0E83000F
:0600F800FF0E7F0E09005F
:1000FE00243083120313FC00B530FD00FD0B852860
:0A010E00FC0B85280000000008002B
:0C011800000000000000000000000800D3
:0E012400533083120313FD00FD0B96280800D4
:1001320083160313071286130710871007118711FE
:1001420083120712861387110711871007107F2069
:100152007F207F208714071407168C2007127F2028
:1001620007168C2007127F2007168C2007127F208B
:10017200071007168C2007127F2007168C20071203
:100182008710871507168C2007127F208711071406
:1001920007168C200712071007168C2007127F20E3
:1001A20007168C200712071407168C2007127F20CF
:1001B200071007168C2007128715071587140714D6
:0C01C20007168C2007127F204C14080048
:1001CE0083120313EC1BED288711EE2887156C1B89
:1001DE00F2280711F3280715EC1AF7288710F828CC
:1001EE0087146C1AFC280710FD2807144C180129D7
:1001FE0086170229861307168C200712EC19092977
:10020E0087110A2987156C190E2907110F29071551
:10021E00EC1813298710142987146C181829071045
:10022E00192907144C181D2986171E29861307161F
:10023E008C2007124C1C25297F202629922008008D
:10024E00243083120313FD00FD0B2B290000080040
:10025E0083120313FB01FA01F9018030F800F10C4F
:10026E00F00C031C43297408F90775080318750F61
:10027E00FA070318FB0A0310F01F4B297408FA073C
:10028E0075080318750FFB07FB0CFA0CF90CF80C2C
:10029E00031C36297B08F3007A08F2007908F10076
:0602AE007808F0000800D2
:1002B400831203132108F000F00D7010F00D70107C
:1002C400F00D701070089F0427211F151F1D6C2945
:0C02D400000068291E08F000F10108007D
:1002E0008229803083120313E9009529C030E90088
:1002F00095299430E9009529D430E900952980307A
:10030000E9009529831203136908013A0319712939
:100310006908023A031976296908033A0319792909
:100320006908043A03197C297F296A03F0006908E7
:10033000F0077008E9004C147008EC00E7204C103E
:0A0340006B08EC00E7204C140800E5
:0E034A00831203135F088A005E088200080019
:10035800831203134C106908EC00E7204C140800C2
:10036800710DF80DF90D7408F8027508031C750F66
:10037800F902F00DF10D0F30FC00710DF80DF90DBB
:100388007408701CCD29F8027508031C750FF90252
:10039800D229F80775080318750FF907F00DF10D44
:1003A800FC0BC1297018DE297408F80775080318B2
:0803B800750FF90700000800B1
:1003C0000530831203139200F930831692008312D2
:1003D0008C1083168C141130831290000130A2000F
:1003E0001E30A7002708AB00BD01A801AD01861192
:0C03F0000B121B30B5000030B6000800F6
:1003FC0099200C30EC00E7200130EC00E7200800DD
:10040C0083120313F801F9011030FC00710DF80D83
:10041C00F90D7408F8027508031C750FF90203181E
:10042C001E2A7408F80775080318750FF9070310CE
:0A043C00F00DF10DFC0B0C2A080076
:100446005A3083120313C9000130CA002130CB0091
:0C04560000309F01C0309F041F140800FC
:10046200831603139F01C53083121F05F000083065
:1004720070049F00BE01BF01A501A6010030260243
:10048200031D452A0430250203185D2A0130A1000C
:100492005A217008BE0771080318013EBF072508DC
:1004A200013EF00000300318013E2607F1007008FB
:1004B200A5007108A6003F2A3E08F0003F08F1009F
:1004C200F10CF00CF113F10CF00CF1137008BE00FA
:1004D2007108BF0000303F02031D712A30303E0216
:1004E20003187C2A2F30270203187B2A270AF000E0
:1004F2007008A7008C2A3F08003C031D822A3E0890
:10050200313C03188C2A27081E3C03188C2A270327
:0E051200F0007008A700073083169F00080055
:10052000831603139F01C53083121F05F000183096
:1005300070049F00B901BA01A501A6018F018E01C7
:100540000C100C18DD2AB301B401DD0140305D024E
:100550000318B82A0330A1005A217008B3077108A4
:100560000318013EB4075D0AF0007008DD00A62AFA
:100570002508013EF00000300318013E2607F10077
:100580007008A5007108A6000630F2003308F000DC
:100590003408F10072080319D22AF10CF00CF1139F
:1005A000FF3ECB2A7008B3007108B4003308B907C6
:1005B00034080318013EBA07A12A2508F4002608CA
:1005C000F5003908F0003A08F10006227008B90079
:1005D0007108BA006008F4006108F500A830F00066
:1005E0000C30F10006227008B5007108B60035081D
:1005F000F0003608F1000330F4000030F5002F2140
:100600003A087102031D062B3908700203180B2BE0
:100610000130BD001F2B3A083602031D112B39088B
:10062000350203181E2B280AF0007008A8000730B6
:100630002802031C1D2B0130BD001F2BA801073011
:0606400083169F00080074
:10064600831203137008F100F0010830FC007108F2
:10065600F40C0318322BFC0B2B2BF1010034031086
:10066600372BF40C0318F107F10CF00CFC0B342BB0
:0206760008007A
:10067800643083120313F4000030F5006508F000BD
:100688006608F100062230307007E4000A30F400F2
:100698000030F5006508F0006608F10006220A300F
:1006A800F4000030F50006227808F0007908F1001F
:1006B80030307007B7000A30F4000030F5006508E4
:1006C800F0006608F10006227808F0007908F100C9
:0806D80030307007B800080083
:1006E000831203133B08003A0319782BE2017C2B99
:1006F0000130E2000330BC002C08023A013003193B
:100700000030F1003D08003A0130031D0030F000D8
:100710007108F0050319932B861A902BBC01922BBC
:100720000330BC00A02B2C08023A031D9A2B013089
:10073000BC00A02B3D08013A031DA02B0230BC00D9
:10074000861EA42B0330BC006208013A031DFE2B59
:100750002D08003A031DFD2BFE21A301A4018C10DE
:1007600083168C108312910107138712A201B20124
:1007700086110B120330BC008230FC00DD30FD001E
:10078000FD0BC02BFC0BC02B0000000006128230BA
:10079000FC00DD30FD00FD0BCB2BFC0BCB2B000058
:1007A0000000831601170B168B1001308312AD0069
:1007B00005309200F9308316920083128C10831654
:1007C0008C1428308312AE002E08AF00B001B101A6
:1007D0008611E301B901BA01C0018F018E013130E8
:1007E00090000C106430D100A301A401D201D30108
:1007F000CD011B30B5000030B6003B2C6208003A3A
:10080000031D3B2CB1018611AD013C08003A031DCC
:100810001C2C3208003A031D1B2C4130FC00EE302A
:10082000FD00FD0B112CFC0B112C0000FE21E02122
:100830000130B20006163B2C8C1083168C108312EC
:10084000910107138712A2018230FC00DD30FD0008
:10085000FD0B282CFC0B282C000000000612B20116
:1008600086110B123C08033A031D3B2C0330AC00ED
:08087000BD01B901BA01080045
:10087800831603139F018312E001E101C5309F0530
:10088800DD0108305D020318562CA1015A217008B9
:10089800E00771080318013EE1075D0AF0007008DF
:1008A800DD00452C6008F0006108F100F10CF00C47
:1008B800F113F10CF00CF113F10CF00CF1137008BA
:1008C800E0007108E1002C08023A013003190030F9
:1008D800F1006208013A0130031D0030F000710890
:1008E800F0040319B02C00306102031D7D2C5F3029
:1008F80060020318832C0230AC00E301B02C0030F6
:100908006102031D892C6930600203188F2C0130A5
:10091800AC00E301B02C6108003C031D952C600875
:100928008E3C03189C2C0130E3000430AC00B02C42
:100938006108003C031DA22C60087D3C0318AD2C07
:1009480063080319AA2C0430AC00AC2C0530AC00A9
:10095800B02C0330AC00E301073083169F00080079
:10096800831203137408003A031DC32C7508003A58
:10097800031DC32CFF30F0007F30F1000800831204
:100988000313FD01F901F80171087004031900341B
:1009980071087506FA00FA1BFD09FB01F51FD92C31
:1009A800F409F509F40A0319F50AF11FE02CF00916
:1009B800F109F00A0319F10A71087504FA00FA1B23
:1009C800F52CB4217B18082DFD1F0034F009F1091E
:1009D800F00A0319F10AF809F909F80A0319F90ADA
:1009E8000034F51F042DF11B002D7108F900700863
:1009F800F800F101F001E82CF101F001F00A0034EF
:100A0800F109F009FB0AE52CF80A0319F90A740838
:100A18007802031DE82C75087902031DE82CF901FA
:100A2800F801F00A0319F10AF11FE82C0000FF345D
:020A38000800B4
:100A3A002F30831603138500213086008701831225
:0E0A4A00850186018701073083169F00080092
:100A5800A5218A110A128000840ADE0A0319DF0A16
:080A6800F003031D2C2D080012
:100A7000831603139F01C53083121F05F000103049
:100A800070049F00CE01CF01DD0108305D02031824
:100A9000572D0230A1005A217008CE0771080318A3
:100AA000013ECF075D0AF0007008DD00452D4E08BD
:100AB000F0004F08F100F10CF00CF113F10CF00C08
:100AC000F113F10CF00CF1137008CE007108CF0097
:100AD0003B08013A031D6F2D7630D000712D723026
:100AE000D0003B08023A031D792DD330D700D8013E
:100AF0007C2DD730D700D80100304F02031D822D46
:100B000050084E020318872D0130BB00932D4F086B
:100B10005802031D8D2D4E0857020318922D0230E6
:0E0B2000BB00932DBB01073083169F00080019
:100B2E0083120313DD0167085D020318A62D203022
:100B3E00E900AC215D0AF0007008DD009A2D080076
:100B4E00403083120313EC00E720A501A60126080E
:100B5E00003C031DB42D2508073C031C302E0C2E23
:100B6E002508563EF00006300318013E2607F10018
:100B7E007008DE007108DF00A5218A110A12DA0062
:100B8E00202E25085E3EF00006300318013E260793
:100B9E00F1007008DE007108DF00A5218A110A122B
:100BAE00DA00202E25084E3EF00006300318013ED6
:100BBE002607F1007008DE007108DF00A5218A11FA
:100BCE000A12DA00202E25083E3EF00006300318E9
:100BDE00013E2607F1007008DE007108DF00A52136
:100BEE008A110A12DA00202E2508463EF000063041
:100BFE000318013E2607F1007008DE007108DF00C1
:100C0E00A5218A110A12DA00202E5908013A031979
:100C1E00B72D5908023A0319C82D5908033A03197A
:100C2E00D92D5908043A0319EA2D5908053A031922
:100C3E00FB2D5A08E900AC212508013EF0000030DA
:100C4E000318013E2607F1007008A5007108A600E2
:100C5E00AE2D0230EC00E7206708E9006808EA00D4
:060C6E00EB0170210800FB
:080C740023228B170B17080067
:1010000083120313A201A301A401A501A6011E30AE
:10101000A700A801A9013230AA001E30AB0003309E
:10102000AC008A113A268A158A111D258A150130CD
:101030008312A200B201E2010130BB00AD01E30165
:10104000C001D401D5010130D900313090008A119E
:1010500038258A158A113C248A158A1170238A152D
:101060006208003A031D4F28A301A4013C08003A7E
:10107000031D47288A1190228A158A1131228A1568
:1010800083120C10550AF0007008D5004E280C1C75
:101090004E28550AF0007008D5000C10F2282D08D3
:1010A000013A031DEB284008003A031DCD280C1C13
:1010B000CC28550AF0007008D500530AF0007008DB
:1010C000D3005308023A031DCB28520AF0007008DF
:1010D000D2000530F2004E08F0004F08F10072080F
:1010E00003197728F00DF10D7010FF3E7028B8300D
:1010F000F400F5018A1106228A157008AF00710804
:10110000B0005208643C03188C280130C000013044
:10111000A3000030A400C9285208323C0318C72895
:101120002F08B3003008B40032305202F000F10151
:10113000031CF1037008103CF0007108031C013E11
:10114000F101F1027008B30771080318013EB407FA
:1011500030083402031DAE282F083302031CB428C4
:101160003308AF003408B00000303402031DBA2841
:101170002E303302031CC0282E30AF000030B000E8
:101180002F08D1000130A3000030A400C928A3011A
:10119000A401D301CB280C10EA280530F2004E0838
:1011A000F0004F08F10072080319DB28F00DF10D73
:1011B0007010FF3ED428B830F400F5018A110622E1
:1011C0008A157008D1000C1CEA28550AF000700836
:1011D000D5000C10F2280C1CF228550AF0007008FB
:1011E000D5000C101008113A031DF9285A30D6000A
:1011F00002291008313A031D00291E30D6000229A9
:101200003C30D60055085606031D1429540AF00038
:101210007008D4008A11FE218A15C50107305402D6
:10122000031C1329D401D5011E2E0130E90005301D
:10123000EA004D30EB008A1170218A152030E90058
:101240008A11AC218A154D30E9008A11AC218A152A
:101250006930E9008A11AC218A156330E9008A11EE
:10126000AC218A157230E9008A11AC218A156F30E1
:10127000E9008A11AC218A150230E9000430EA0045
:101280005330EB008A1170218A156F30E9008A1102
:10129000AC218A156C30E9008A11AC218A157530B1
:1012A000E9008A11AC218A157430E9008A11AC2159
:1012B0008A156930E9008A11AC218A156F30E9007E
:1012C0008A11AC218A156E30E9008A11AC218A1589
:1012D0007330E9008A11AC218A153A2E0130E900F9
:1012E0000130EA004D30EB008A1170218A1561301F
:1012F000E9008A11AC218A156930E9008A11AC2114
:101300008A156E30E9008A11AC218A157330E90024
:101310008A11AC218A152030E9008A11AC218A1586
:101320005630E9008A11AC218A153A30E9008A1159
:10133000AC218A154E08F0004F08F100DC30F400B3
:10134000F5018A112F218A15B830F400F5018A11B0
:1013500006228A157008E5007108E6008A113C2310
:101360008A150130E9000C30EA007E30EB008A116A
:1013700070218A156408E9008A11AC218A153708A2
:10138000E9008A11AC218A153808E9008A11AC21DC
:101390008A155630E9008A11AC218A150230E9001D
:1013A0000330EA004D30EB008A1170218A1561305C
:1013B000E9008A11AC218A156930E9008A11AC2153
:1013C0008A156E30E9008A11AC218A157330E90064
:1013D0008A11AC218A152030E9008A11AC218A15C6
:1013E0003B08003A031D042A4F30E9008A11AC2162
:1013F0008A156B30E9008A11AC218A150630E700A6
:101400008A1197258A15492A3B08013A031D2C2A7F
:101410004C30E9008A11AC218A156F30E9008A113D
:10142000AC218A157730E9008A11AC218A152F305A
:10143000E9008A11AC218A154F30E9008A11AC21EC
:101440008A156630E9008A11AC218A156630E900F8
:101450008A11AC218A15492A3B08023A031D492A00
:101460004830E9008A11AC218A156930E9008A11F7
:10147000AC218A156730E9008A11AC218A156830E1
:10148000E9008A11AC218A150430E7008A119725FA
:101490008A153A2E0130E9000330EA004930EB00AA
:1014A0008A1170218A156E30E9008A11AC218A15E3
:1014B0007630E9008A11AC218A156530E9008A117D
:1014C000AC218A157230E9008A11AC218A1574307A
:1014D000E9008A11AC218A156530E9008A11AC2136
:1014E0008A157230E9008A11AC218A152030E90092
:1014F0008A11AC218A153C08003A0130031D0030E6
:10150000F1006208003A0130031D0030F00071085C
:10151000F00503199B2A4F30E9008A11AC218A1586
:101520006E30E9008A11AC218A150330E7008A1178
:1015300097258A15962B3C08033A0130031D00308D
:10154000F1006208013A0130031D0030F00071081B
:10155000F0040319082B4F30E9008A11AC218A15D9
:101560006630E9008A11AC218A156630E9008A11DB
:10157000AC218A150230E7008A1197258A150230BE
:10158000E9000430EA005330EB008A1170218A151B
:101590007730E9008A11AC218A156930E9008A1197
:1015A000AC218A157430E9008A11AC218A156330A8
:1015B000E9008A11AC218A156830E9008A11AC2152
:1015C0008A152030E9008A11AC218A15861EF82A76
:1015D0004F30E9008A11AC218A156630E9008A1182
:1015E000AC218A156630E9008A11AC218A15072BD7
:1015F0004F30E9008A11AC218A156E30E9008A115A
:10160000AC218A150230E7008A1197258A15962B9E
:101610004F30E9008A11AC218A156630E9008A1141
:10162000AC218A156630E9008A11AC218A15023096
:10163000E7008A1197258A153C08013A031D5C2BA7
:101640000230E9000130EA004230EB008A117021DB
:101650008A156130E9008A11AC218A157430E900DD
:101660008A11AC218A157430E9008A11AC218A15DF
:101670006530E9008A11AC218A157230E9008A11BF
:10168000AC218A157930E9008A11AC218A15203005
:10169000E9008A11AC218A154C30E9008A11AC218D
:1016A0008A156F30E9008A11AC218A157730E9007C
:1016B0008A11AC218A15962B3C08023A031D962B01
:1016C0000230E9000130EA002030EB008A1170217D
:1016D0008A150430E7008A1197258A154F30E900F2
:1016E0008A11AC218A157630E9008A11AC218A155D
:1016F0006530E9008A11AC218A157230E9008A113F
:10170000AC218A156C30E9008A11AC218A156F3042
:10171000E9008A11AC218A156130E9008A11AC21F7
:101720008A156430E9008A11AC218A153A2E0130FD
:10173000E9000130EA004230EB008A1170218A157D
:101740006130E9008A11AC218A157430E9008A11F0
:10175000AC218A157430E9008A11AC218A156530F4
:10176000E9008A11AC218A157230E9008A11AC2196
:101770008A157930E9008A11AC218A152030E900F8
:101780008A11AC218A155630E9008A11AC218A15DC
:101790003A30E9008A11AC218A156008E500610839
:1017A000E6008A113C238A150130E9000C30EA007A
:1017B0006408EB008A1170218A153708E9008A1144
:1017C000AC218A152E30E9008A11AC218A1538081F
:1017D000E9008A11AC218A155630E9008A11AC2142
:1017E0008A150230E9000130EA004230EB008A112C
:1017F00070218A156130E9008A11AC218A15743094
:10180000E9008A11AC218A157430E9008A11AC21F3
:101810008A156530E9008A11AC218A157230E90019
:101820008A11AC218A157930E9008A11AC218A1518
:101830002030E9008A11AC218A152C08023A031DD8
:10184000362C4C30E9008A11AC218A156F30E90042
:101850008A11AC218A157730E9008A11AC218A15EA
:101860000130E7008A1197258A15822C2C08043A4A
:101870000130031D0030F1002C08053A0130031D32
:101880000030F0007108F0040319732C6308031989
:10189000632C4630E9008A11AC218A157530E900C5
:1018A0008A11AC218A156C30E9008A11AC218A15A5
:1018B0006C30E9008A11AC218A150230E7008A11E8
:1018C00097258A15722C4F30E9008A11AC218A15B0
:1018D0004B30E9008A11AC218A150430E7008A11E7
:1018E00097258A15822C4F30E9008A11AC218A1580
:1018F0004B30E9008A11AC218A150430E7008A11C7
:1019000097258A153C08003A031D8F2C6830C600C5
:101910006C30C7007130C1007530C200B02C620855
:10192000013A031DA82C630803199F2C6830C600D8
:101930006C30C7007130C1007530C200A72C713007
:10194000C6007830C7007D30C1008730C200B02C9F
:101950007330C6007630C7007930C1007B30C200DA
:1019600000306102031DB62C460860020318BB2C30
:101970000130D900DE2C00306102031DC12C470864
:1019800060020318C62C0230D900DE2C0030610240
:10199000031DCC2C410860020318D12C0330D90060
:1019A000DE2C00306102031DD72C420860020318B0
:1019B000DC2C0430D900DE2C0530D9000230E700E1
:1019C0000F30E8008A11A7258A153A2E0130E90068
:1019D0000230EA004330EB008A1170218A1568302A
:1019E000E9008A11AC218A156130E9008A11AC2125
:1019F0008A157230E9008A11AC218A156730E90036
:101A00008A11AC218A156930E9008A11AC218A1546
:101A10006E30E9008A11AC218A156730E9008A111D
:101A2000AC218A152030E9008A11AC218A156208A0
:101A3000003A031D3E2D4F30E9008A11AC218A1572
:101A40006630E9008A11AC218A156630E9008A11F6
:101A5000AC218A150230E7008A1197258A150230D9
:101A6000E9000130EA002030EB008A1170218A156C
:101A70000D30E7008A1197258A15872D6308031911
:101A8000642D4630E9008A11AC218A157530E900D1
:101A90008A11AC218A156C30E9008A11AC218A15B3
:101AA0006C30E9008A11AC218A150230E90001305E
:101AB000EA002030EB008A1170218A150D30E70012
:101AC0008A1197258A15872D5508F0000A30F400F1
:101AD0008A1123238A155608F400F5018A11B424CB
:101AE0008A15700AF1007108D9007108053C0318C5
:101AF0007B2D0530D9020130E7000B30E8008A1158
:101B0000A7258A150630E7008A1197258A153A2EEF
:101B10003908F0003A08F1006430F4000030F500B4
:101B20008A112F218A153508F4003608F5008A112C
:101B300006228A157008C3007108C4004308E50036
:101B40004408E6008A113C238A154408003C031D22
:101B5000AB2D4308633C0318B12D6330C300003044
:101B6000C4000130E9000130EA004930EB008A117D
:101B700070218A156E30E9008A11AC218A15763001
:101B8000E9008A11AC218A156530E9008A11AC217F
:101B90008A157230E9008A11AC218A157430E90087
:101BA0008A11AC218A156530E9008A11AC218A15A9
:101BB0007230E9008A11AC218A152030E9008A11BF
:101BC000AC218A154C30E9008A11AC218A156F309E
:101BD000E9008A11AC218A156130E9008A11AC2133
:101BE0008A156430E9008A11AC218A153A30E9007F
:101BF0008A11AC218A150230E9000530EA0028304C
:101C0000EB008A1170218A153708E9008A11AC218E
:101C10008A153808E9008A11AC218A152030E900BC
:101C20008A11AC218A152530E9008A11AC218A1568
:101C30002930E9008A11AC218A153A2E5408003A5D
:101C4000031915295408013A031915295408023AB1
:101C500003196E295408033A03194A2A5408043A0E
:101C60000319972B5408053A0319E62C5408063A31
:081C70000319882D27283B2EE3
:100C7C000E341B3411341F341F341F341F341F34F3
:100C8C000E341F341F341F341F341F341F341F34D1
:100C9C000E341B34113411341F341F341F341F34E1
:100CAC000E341B3411341134113411341F341F34ED
:100CBC000E341B341134113411341F341F341F34CF
:02400E000200AE
:00000001FF
